:020000040800F2
:1000000098050020010100081F1D00086D17000859
:100010001D1D0008290400089D23000800000000A1
:10002000000000000000000000000000911F000818
:100030002B04000800000000151F0008931F000893
:100040001B0100081B0100081B0100081B01000820
:100050001B0100081B0100081B0100081B01000810
:100060001B0100081B0100081B0100081B01000800
:100070001B0100081B0100081B0100081B010008F0
:100080001B0100081B0100081B0100081B010008E0
:100090001B0100081B0100081B0100081B010008D0
:1000A0001B0100081B0100081B0100081B010008C0
:1000B000F91F00081B0100081B0100081B010008B4
:1000C0001B0100081B0100081B0100081B010008A0
:1000D0001B0100081B0100081B0100081B01000890
:1000E0001B0100081B0100081B010008DFF80CD0F1
:1000F00000F04AF9004800477D2C000898050020D0
:100100000648804706480047FEE7FEE7FEE7FEE7B1
:10011000FEE7FEE7FEE7FEE7FEE7FEE7F51F000865
:10012000ED000008202A04DB203A21FA02F0002129
:10013000704721FA02F3D040C2F1200291400843F7
:1001400019467047D2B201E000F8012B491EFBD2DC
:1001500070470022F6E710B513460A4604461946D2
:10016000FFF7F0FF204610BD2DE9FE4F81EA0304A2
:1001700004F0004421F0004100944FF0000B23F004
:10018000004350EA01045ED052EA03045BD0C3F39B
:100190000A54C1F30A552C44A4F2F3340194A0FB91
:1001A0000254C1F3130141F48011C3F3130343F468
:1001B000801301FB024400FB034E840A970A44EAC1
:1001C000815447EA8357A4FB076802958D0A05FB13
:1001D00007854FEA932C04FB0C542705029D4FEA38
:1001E000065847EA1637B5EB08056EEB070C870E85
:1001F000920E47EA811742EA8312A7FB0201B6EB8F
:100200000B0164EB00042B0D43EA0C335E1844EB46
:100210001C50DA465146E7FB0201C5F313044FEACE
:100220000B3343EA14534FEA0432019C43EA0603BA
:10023000A4F10C040294009CCDE900B400F055F840
:1002400003B0BDE8F08F00200146F9E70EB5C10FFD
:1002500080EAE0700844CA07002140F233438DE889
:100260000E000A460B4600F040F803B000BDC1F393
:100270000A5210B5C1F3130140F2FF3341F480116B
:100280009A4201DA002010BD40F233439A42A2F2B2
:10029000334203DC5242FFF745FF10BD904010BDD2
:1002A00030B50B46014600202022012409E021FA46
:1002B00002F59D4205D303FA02F5491B04FA02F543
:1002C0002844151EA2F10102F1DC30BD10B5141E48
:1002D00073F1000408DA401C41F1000192185B41FF
:1002E0001A4301D120F0010010BD2DE9F04D9246D6
:1002F0009B4611B1B1FA81F202E0B0FA80F22032ED
:10030000904600F053F804460F4640EA0A0041EADE
:100310000B0153465A46084313D0114653EA0100D5
:1003200019D0C8F140025046FFF7FCFE05460E46C4
:1003300050465946424600F039F8084305D001209E
:1003400004E020463946BDE8F08D0020054346EA2A
:10035000E0762C4337430A986305E40AA0EB0800D3
:100360000022FD0A44EA47540A3002D50020014623
:10037000E9E7010510196941DDE9084500196941FE
:10038000BDE8F04DA2E70000064C074D06E0E0682E
:1003900040F0010394E8070098471034AC42F6D3CC
:1003A000FFF7A8FEB4390008D4390008202A04DB7E
:1003B000203A00FA02F1002070479140C2F1200378
:1003C00020FA03F3194390407047000070B50546CA
:1003D0000F480C4600688563012210210D4800F08B
:1003E0005CF92846FFF732FF0B4A0C4BFFF7BCFEC7
:1003F000FFF73DFF0A490968C863012291020948D5
:1004000000F04BF92046BDE8704000F03FB8000016
:10041000F800002000080140EC51B81E85EBF13FC8
:10042000B0000020000C0140FEE7704772B6FEE706
:1004300070B505460F480C46006885630022102100
:100440000D4800F02AF92846FFF700FF0B4A0C4B35
:10045000FFF78AFEFFF70BFF0A490968C86300220D
:100460004FF48061084800F018F92046BDE870405C
:1004700000F00CB8F800002000080140EC51B81E54
:1004800085EBF13FB0000020000C014070B5044640
:1004900000F008F90546601C02D0044800780444C6
:1004A00000F000F9401BA042FAD370BD000000200C
:1004B0002DE9F84FDFF8B891002409F1040A0AF198
:1004C000040B23460F270BF1040EC9E00125A540BC
:1004D0002A40AA427DD1674ED1F804C0ACEB060891
:1004E000B44532D014DCBCF1030F3AD009DCBCF1C6
:1004F000000F2AD0BCF1010F1CD0BCF1020F31D18A
:100500001DE0BCF1110F17D0BCF1120F2AD119E078
:10051000B8F5881F19D006DCB8F5803F15D0B8F5BE
:10052000801F1FD111E0B8F5001F0ED0B8F5041FD1
:1005300018D10AE0CB6815E0CB681B1D12E0CB6830
:1005400008330FE0CB680C330CE08B682BB1012B28
:100550004FF0080303D0456104E0042302E0056185
:1005600000E00023FF2A01D8064601E000F104065E
:100570004FEA840501D9A5F12005D6F8008007FAD5
:1005800005FC28EA0C0803FA05F548EA0508C6F850
:1005900000804D68ED0062D5374DAE6946F001062A
:1005A000AE61AD6924F0030605F001050095334DF9
:1005B00006EB050CDCF80850A607360F07FA06F81C
:1005C00025EA0805DFF8B880404503D14FF0000860
:1005D00017E044E0DFF8AC80404502D14FF001085D
:1005E0000FE0DFF8A480404502D14FF0020808E098
:1005F000DFF89880404502D14FF0030801E04FF04A
:10060000040808FA06F848EA0508CCF808804D689E
:10061000D9F80060ED034D4601D5164300E096433E
:100620002E604D68DAF80060AD03554601D51643DB
:1006300000E096432E604D68DBF80060ED025D46F9
:1006400001D5164300E096432E604D68DEF8006049
:10065000AD02754601D5164300E096432E60641C3A
:100660000D682A46E5407FF431AFBDE8F88F000001
:100670000004014000001110001002400000014081
:1006800000080140000C014000100140001401402E
:100690008068084000D0012070470AB101617047AE
:1006A0000904FBE701488068704700000000002053
:1006B00070B5040025D094F83D00002520B984F8D9
:1006C0003C50204600F050F9242084F83D0020687A
:1006D000016821F0010101602068016841F40041D6
:1006E00001602068016821F40041016000F0A2FA75
:1006F0004D4A6168914201D84C4900E04C4988421A
:1007000001D2012070BD4B492368B0FBF1F15E6856
:1007100026F03F060E435E606368934206D94FF4AD
:10072000967359434FF47A73B1FBF3F12368491C74
:100730001E6A26F03F06314319626168914210D863
:100740004900401EB0FBF1F2521CC2F30B02042A16
:1007500001D2042022E0B0FBF1F0401CC0F30B00FA
:100760001CE0A268F2B301EBC10303EB0116431EC8
:10077000B3FBF6F35B1C43F480431B0549D092B3F3
:1007800001EBC10202EB0111401EB0FBF1F0401C75
:10079000C0F30B0040F4804040F400402168CA6977
:1007A0004CF6FF739A431043C861D4E90710014324
:1007B0002068026822F0C00211430160D4E90301FD
:1007C00001432068826848F2FF339A4311438160F5
:1007D000D4E9050108432168CA6822F0FF021043EA
:1007E000C86001E00EE016E02068016841F00101F8
:1007F00001602564202084F83D00256384F83E5084
:10080000002070BD01EB4106431EB3FBF6F35B1CF9
:10081000B3E70120C2E701EB4101401EB0FBF1F05C
:10082000401CC0F30B00B7E7A086010080841E00C7
:1008300000093D0040420F002DE9FF4F83B09A466A
:10084000DDE9119793460446DDF84080FFF72AFF63
:10085000054694F83D0020287FD119230122404904
:100860002046009501F014F8002876D194F83C0059
:10087000012872D0012084F83C0020680168C90773
:1008800003D1016841F0010101602068016821F491
:1008900000610160212084F83D00402084F83E0082
:1008A00000262664C4F82480A4F82A90608D208550
:1008B0002C48E062CDE9007553465A46204604991B
:1008C00000F06CFF70B930E02A463946204601F04E
:1008D0005EF858B1206C042804D12068016841F406
:1008E00000710160012007B0BDE8F08F606A2168E7
:1008F00000780861606A401C6062218D491E89B2DF
:100900002185628D521E628522685369DB435B0735
:100910000BD469B100781061606A401C6062208D60
:10092000401E2085608D401E6085208D0028CBD123
:100930002A463946204600F085FF0028CAD154F8DF
:100940003D0B016841F400710160202004F81E098C
:10095000E67766770020C6E7FFE70220C3E70000DE
:10096000020010000000FFFF10B586B000210091CA
:1009700001910291039100681349884222D1134CDE
:10098000A06940F00800A061A069694600F0080075
:1009900004904FF4407000901220019003200390C7
:1009A0000B48FFF785FD0B48416841F0E06141F0DD
:1009B00002014160E06940F40010E061E06900F488
:1009C0000010049006B010BD00540040001002401A
:1009D000000C014000000140024881680278114487
:1009E0008160704700000020074810B5016841F0A1
:1009F00010010160032000F075F8002000F006F8F7
:100A000000F024F8002010BD0020024070B50D4D0C
:100A100004464FF47A712878B1FBF0F00A4909686E
:100A2000B1FBF0F000F0ECFA48B9102C07D200222C
:100A30002146501E00F036F800206C6070BD012089
:100A400070BD0000000000200C0000200C4808B51C
:100A5000816941F001018161816901F00101009129
:100A6000C16941F08051C161C06900F080500090BF
:100A70000448416821F0E06141F00071416008BD27
:100A80000010024000000140002809DB00F01F02B6
:100A9000012191404009800000F1E020C0F80011E0
:100AA00070470000F0B40E4B1B680C46C3F30223E2
:100AB000C3F10705042D00D90425191D072901D20A
:100AC000002300E0DB1E012606FA05F1491E214045
:100AD00099409E40761E16403143F0BC01F098BC10
:100AE0000CED00E0064900F0070208684FF6FF032E
:100AF000184040EA0220034A104308607047000093
:100B00000CED00E00000FA052DE9F0470F46050066
:100B100061D0434E306800F00700B84209D2306817
:100B200020F0070038433060306800F00700B8421A
:100B300051D128683B4C810712D5400703D5606826
:100B400040F4E06060602878000703D5606840F4F6
:100B5000605060606068A96820F0F0000843606041
:100B60002878C00728D06868012810D0216802289A
:100B700010D0890700292EDA616821F003010143B2
:100B80006160FFF78FFD804641F288390DE02168F2
:100B90008903EFE78901EDE7FFF784FDA0EB08018A
:100BA000494502D90320BDE8F0876068696800F014
:100BB0000C00B0EB810FEFD1306800F00700B842B5
:100BC0000BD9306820F0070038433060306800F0FF
:100BD0000700B84201D00120E5E72878400705D595
:100BE0006068E96820F4E0600843606028780007E6
:100BF00006D56068296920F4605040EAC100606051
:100C000000F038F86168084AC1F30311515CC8402C
:100C10000649086006480068FFF7F8FE0020C2E7B2
:100C20000020024000100240843100080C00002027
:100C3000040000200448054900684968044AC1F3DB
:100C40000221515CC84070470C0000200010024097
:100C5000943100080448054900684968044AC1F312
:100C6000C221515CC84070470C00002000100240B7
:100C70009431000812A185B00FC98DE80F0014A0AF
:100C8000144A006804905168134801F00C03042BC7
:100C900010D0082B0ED1C1F38343C9031DF8030004
:100CA0000AD5516804AAC1F34041515C0A4A504335
:100CB000B0FBF1F005B0704708494843FAE700007F
:100CC00002030405060708090A0B0C0D0E0F10108D
:100CD000010200000010024000127A0000093D00ED
:100CE0002DE9F84F040070D02078C04DC00749D0DE
:100CF0006868C0F38100012807D06868C0F38100EC
:100D0000022809D16868C00306D52868800339D550
:100D100060680028E7D035E06068B0F5803F0BD010
:100D200010B1B0F5A02F11D0286820F480302860D1
:100D3000286820F4802002E0286840F48030286091
:100D4000606890B1FFF7AEFC06460AE0286840F400
:100D500080202860F0E700BFFFF7A4FC801B642818
:100D600073D828688003F7D50CE0FFF79BFC064694
:100D700005E000BFFFF796FC801B6428F0D82868C8
:100D80008003F7D420789A4E80074FF001094FF086
:100D9000000839D5686810F00C0F07D06868C0F3F8
:100DA0008100022809D16868C00306D4286880073A
:100DB00014D52069012808D110E02069B0B1C6F827
:100DC0000090FFF76FFC074605E00AE1FFF76AFCB9
:100DD000C01B0228C4D828688007F7D52868616935
:100DE00020F0F80040EAC10028600DE0C6F800805D
:100DF000FFF758FC074604E0FFF754FCC01B02282D
:100E000023D828688007F7D4207800072CD57948A4
:100E1000A169D9B1C0F80090FFF744FC074604E08F
:100E2000FFF740FCC01B02280FD8686A8007F7D57F
:100E300071484FF4FA510068B0FBF1F0009000BF28
:100E40000098411E0091FAD20EE080E0C0F80080C8
:100E5000FFF728FC074604E0FFF724FCC01B02282C
:100E600075D8686A8007F7D42078400760D5E869AC
:100E70000027C00008D4E86940F08050E861E869C4
:100E8000012700F0805000905C480168C90513D428
:100E90000168834641F480710160FFF703FC8246DC
:100EA00006E000BFFFF7FEFBA0EB0A0064284ED867
:100EB000DBF80000C005F5D5E06801280AD008B1CC
:100EC000052813D0286A20F001002862286A20F043
:100ED000040002E0286A40F001002862E06841F264
:100EE000883B98B1FFF7DEFB82460BE0286A40F0B2
:100EF00004002862EEE700BFFFF7D4FBA0EB0A0175
:100F000059455AD8286A8007F6D50CE0FFF7CAFB86
:100F1000824605E0FFF7C6FBA0EB0A0159454CD815
:100F2000286A8007F6D41FB1E86920F08050E86194
:100F3000E06988B36968C1F38101022944D00228BD
:100F4000C6F8608004D0FFF7ADFB044638E034E01B
:100F5000FFF7A8FB074604E0FFF7A4FBC01B02282D
:100F60002BD828688001F7D4206AB0F5803F05D1DE
:100F70006868A16820F4003008436860D4E908017B
:100F80000843696821F4741108436860C6F86090EA
:100F9000FFF788FB044606E025E000BFFFF782FB71
:100FA000001B022809D828688001F7D51BE000BF84
:100FB000FFF778FB001B022802D90320BDE8F88F59
:100FC00028688001F4D40EE00128F7D06868226A0E
:100FD00000F48031914204D1616A00F470108842BB
:100FE00001D00120EAE70020E8E7000000100240FD
:100FF00000004242800442420C0000200070004089
:1010000010B5401EB0F1807F01D3012010BD4FF01C
:10101000E02460610F21601701F0FAF90020A0615F
:1010200007202061002010BD7047704770B590F810
:101030003C20012A26D0012480F83C40022280F87E
:101040003D2003685A689D6822F070060A683243A2
:101050005A600D4B02689A4208D0B2F1804F05D019
:101060000A4B9A4202D00A4B9A4204D1496825F0B1
:1010700080031943916080F83D40002180F83C10C6
:10108000084670BD022070BD002C014000040040E5
:10109000000800400068B0F1804F0BD10E480F49A6
:1010A00003780A68012B06D0022B03D1516A8160B4
:1010B000032101707047002353620A68536A43603A
:1010C000136A23F00A03136209680A6A42F00202F3
:1010D0000A620221EDE70000840100206800002080
:1010E0002DE9F041054690F83C000C46012836D029
:1010F000012085F83C008AB3042A42D02868082AD7
:1011000051D0D4E90023E168066A26F480560662CD
:10111000C669076A26F4407646EA03234FF6FF764F
:1011200006EA013123F4704319434FF4005627F4C3
:10113000005306EA02321A43C16102622868C1699B
:1011400021F44061C1612868C169A26841EA0221B5
:10115000C161002085F83C00BDE8F08101E002207B
:10116000FAE7D4E90012E368286801F031F828684A
:10117000816921F00C01816128688169A2681143AD
:101180000FE0D4E90012E368286801F04DF8286800
:10119000816921F44061816128688169A26841EA1E
:1011A00002218161D5E7D4E90027267B016A21F479
:1011B00080710162C169036A21F00301394321F0A2
:1011C000F00731074FF4007647EA116123F400730A
:1011D00006EA02221A43C16102622868C16921F04D
:1011E0000C01C1612868C169A2681143B0E710B55C
:1011F000040003D094F83D0010B107E0012010BDB9
:10120000002084F83C00204600F01EF8022084F8FC
:101210003D00211D206800F0F5FE012084F8460005
:1012200084F83E0084F83F0084F8400084F84100D0
:1012300084F8420084F8430084F8440084F84500B0
:1012400084F83D00002010BD00B585B0002100915C
:101250000191029103910068B0F1804F28D11548A7
:10126000C16941F00101C161C16901F0010104914D
:10127000816941F0040181618069694600F00400E0
:1012800004904FF4004000900B48FFF711F90B4811
:10129000416821F4407141F0E06141F480714160A6
:1012A000002211461C20FFF7FDFB1C20FFF7ECFB82
:1012B00005B000BD001002400008014000000140E0
:1012C00070B50446006801694FF00005C9438907FD
:1012D00015D4C168C943890711D4E91E01610120F1
:1012E0002077206880698007204602D0FFF7D2FE71
:1012F00004E000F0CDF8204600F07CF92577206866
:101300000169C943490717D4C168C943490713D4C0
:101310006FF004010161022020772068806910F4D9
:10132000407F204602D0FFF7B5FE04E000F0B0F8A1
:10133000204600F05FF9257720680169C943090755
:1013400016D4C168C943090712D46FF008010161BE
:10135000042020772068C0698007204602D0FFF76C
:1013600099FE04E000F094F8204600F043F9257758
:1013700020680169C943C90617D4C168C943C906B1
:1013800013D46FF010010161082020772068C06934
:1013900010F4407F204602D0FFF77CFE04E000F00E
:1013A00077F8204600F026F9257720680169C943BF
:1013B000C90708D1C168C943C90704D1891E0161A1
:1013C000204600F067F920680169C943090609D47D
:1013D000C168C943090605D46FF080010161204648
:1013E000FFF722FE20680169C943490609D4C16894
:1013F000C943490605D46FF040010161204600F061
:101400004AF920680169C94389060BD4C168C943F8
:10141000890607D46FF0200101612046BDE87040C5
:10142000FFF703BE70BD000010B586B0002100912B
:10143000019102910391124C036812490222124851
:10144000A34209D18B6943F008038B61896901F0DC
:101450000801049101210BE00C4CA3420ED18B69D1
:1014600043F008038B61896901F008010491802130
:10147000CDE9001269460392FFF71AF806B010BDD5
:101480000004004000100240000C01400008004031
:10149000704770B5044690F83C000D4601280AD00C
:1014A000012084F83C0042B1042A18D0082A2AD02E
:1014B0000C2A4DD139E0022070BD206800F0E6FD15
:1014C0002068816941F0080181612068816921F00B
:1014D00004018161206881692A69114311E0206853
:1014E00000F0FCFD2068816941F4006181612068A1
:1014F000816921F480618161206881692A6941EAFA
:101500000221816124E0206800F014FE2068C16996
:1015100041F00801C1612068C16921F00401C16185
:101520002068C1692A69114311E0206800F02EFE8D
:101530002068C16941F40061C1612068C16921F47A
:101540008061C1612068C1692A6941EA0221C161E3
:10155000002084F83C0070BD10B5040003D094F85E
:101560003D0010B107E0012010BD002084F83C00D0
:10157000204600F01FF8022084F83D00211D20685D
:1015800000F040FD012084F8460084F83E0084F815
:101590003F0084F8400084F8410084F8420084F859
:1015A000430084F8440084F8450084F83D0000209E
:1015B00010BD000008B50C4A01680C48914207D1E3
:1015C000C16941F00201C161C06900F0020009E097
:1015D000074A914207D1C16941F00401C161C06964
:1015E00000F00400009008BD00040040001002401C
:1015F000000800407047000010B50446022249B1BF
:1016000004290ED0082913D094F84100012816D0DF
:10161000012010BD94F83E000128F9D184F83E2045
:101620000FE094F83F000128F2D184F83F2008E051
:1016300094F840000128EBD184F8402001E084F8C0
:1016400041200122206800F013FD0F4920688842E4
:1016500003D1426C42F4004242642068884208D0C0
:10166000B0F1804F05D00949884202D0084988422C
:1016700004D1816801F00701062903D0016841F017
:1016800001010160002010BD002C01400004004059
:10169000000800407047704770B5040004D094F80B
:1016A0003D00002510B106E0012070BD84F83C50DB
:1016B000204600F023F8242084F83D002068C1680B
:1016C00021F40051C160204600F00CFE2068016941
:1016D00021F4904101612068416921F02A014161B2
:1016E0002068C16841F40051C1602564202084F85D
:1016F0003D0084F83E00002070BD000030B585B08C
:1017000000240094019402940394006814498842D0
:1017100023D11448C16941F40031C161C16901F4A8
:1017200000310491816941F00401816180690E4DAD
:1017300000F0040004900420009002200190032097
:10174000039069462846FEF7B3FE0820CDE9000461
:10175000694628460294FEF7ABFE05B030BD000096
:10176000004400400010024000080140FEE701680C
:101770004A69D24352050FD46FF480624A61002156
:1017800040F8301F202242738173026942F0040244
:101790000261017301207047002070472DE9F84372
:1017A000044600680D46DDE908970168984616462C
:1017B00041F4807101604B4600224FF00111204638
:1017C000009700F065F848B120680068C00502D5B0
:1017D0004FF4007020640320BDE8F883216805F011
:1017E000FE0008613B464A461549204600F084F851
:1017F00088B920684169806900903A464946204688
:1018000000F0C5F848B1206C042804D120680168B4
:1018100041F4007101600120DEE7F5B2B8F1010F7B
:1018200009D02168300A08613A464946204600F04E
:10183000AEF80028E7D1206805610020CCE7000061
:101840000200010070B516460D4604460DE0204624
:10185000FFF78DFF08B1012070BD681C05D0FEF7B1
:1018600021FF801BA84207D835B120684069C043DA
:101870004007ECD4002070BD002044F8300F202138
:101880006173A073216941F0200121612073E2E7B7
:101890002DE9F0471E4690460D460446C1F3074722
:1018A000DDF8209008E0701C06D0FEF7FBFEA0EBF0
:1018B0000900B0420FD876B12068012F18D0806996
:1018C00025EA00000004000C14D000214145EAD0B4
:1018D0000020BDE8F087002044F8300F202161731C
:1018E000A073216941F02001216120730120F0E7FC
:1018F0004069E5E70121E9E72DE9F0479A4691467D
:101900000E46044600254FF02008C1F3074725E0A6
:1019100020684069C043400514D42068016841F440
:101920000071016021686FF480604861256384F86C
:101930003D8084F83E50206C40F00400206484F820
:101940003C501FE0B9F1FF3F08D0FEF7ABFEA0EB23
:101950000A0149450CD8B9F1000F09D02068012FC0
:1019600013D0806926EA00000004000C0BD0CFE7FA
:1019700044F8305F84F80D80A573206940F02000A2
:10198000206125730120BDE8F0874069EAE770B562
:1019900016460D4604460DE02046FFF7E8FE08B166
:1019A000012070BD681C05D0FEF77CFE801BA8429C
:1019B00007D835B120684069C0430006ECD4002048
:1019C00070BD002044F8300F20216173A07321699D
:1019D00041F0200121612073E2E7000070B50D465F
:1019E0001049144609688863002210210E48FEF74A
:1019F00054FE2846FEF72AFC4FF033320B4BFEF71D
:101A0000B3FBFEF734FC0A490968C86300224FF4AF
:101A100080610848FEF741FE2046BDE87040FEF7B1
:101A200035BD0000F8000020000801403333F33FCB
:101A3000B0000020000C01402DE9F04786B00025E1
:101A400039480095019502950395816941F010018F
:101A50008161816901F010010491816941F02001E7
:101A60008161816901F020010491816941F00401E3
:101A70008161816901F004010491816941F00801EB
:101A800081618069DFF8A48000F008004FF4005401
:101A90000490002221464046FEF7FFFDDFF890A0AB
:101AA00000224FF411615046FEF7F7FDDFF88490F5
:101AB000E710002239464846FEF7EFFD0094012466
:101AC0000226CDE90246694640460194FEF7F0FC45
:101AD0004FF488708DE8710069465046FEF7E8FCC7
:101AE00001AA009782E8700069464846FEF7E0FCCC
:101AF0004FF47040CDE90005694602944846FEF770
:101B0000D7FCE002CDE90004CDE902466946504623
:101B1000FEF7CEFC20038DE8610069465046FEF7D3
:101B2000C7FC06B0BDE8F08700100240001001407D
:101B300000080140000C01400D4810B50B49016040
:101B40000C49416000214FF480428160C0E90312DA
:101B500041618161C1610162FEF7AAFD002803D0E5
:101B6000BDE81040FEF762BC10BD0000005400400C
:101B700014000020A086010010B586B0002418488B
:101B8000059404940094019402944FF080410394CE
:101B900001604721C0E901144FF6FF71C0E9031449
:101BA00080218161FFF723FB08B1FEF73FFC04941D
:101BB00004A90B480594FFF739FA08B1FEF736FC83
:101BC0000120CDE9004002940022694604480394B4
:101BD000FFF786FA002801D0FEF728FC06B010BDFA
:101BE0006800002030B589B0002507951C216846A3
:101BF0000895FEF7AEFA1A4C184820604720C4E951
:101C0000010540F2E730C4E903052046A561FFF76E
:101C1000A3FC08B1FEF70AFC079507A91048089530
:101C2000FFF704FA08B1FEF701FC6020CDE90005DA
:101C3000042004900822694602950948FFF729FC10
:101C400008B1FEF7F3FB2068C16921F00801C1610A
:101C50000348FFF7E9FB09B030BD00000004004075
:101C6000B000002030B589B0002507951C216846DA
:101C70000895FEF76EFA1A4C184820604720C4E910
:101C8000010540F2E730C4E903052046A561FFF7EE
:101C900063FC08B1FEF7CAFB079507A91048089531
:101CA000FFF7C4F908B1FEF7C1FB6020CDE90005DC
:101CB000042002460490694602950948FFF7E9FBB3
:101CC00008B1FEF7B3FB2068816921F400618161EE
:101CD0000348FFF7A9FB09B030BD00000008004031
:101CE000F80000200C4810B50A4901604FF4E131BA
:101CF0004160002181600C22C160C0E90412816151
:101D0000C161FFF7C9FC002803D0BDE81040FEF711
:101D10008DBB10BD0044004040010020FEE7FEE7FF
:101D2000002000F001B8000070B506465FF0000426
:101D300004F1B000C0B200F033FB002000F030FB33
:101D4000102000F02DFB0025304600F03BFB6D1C01
:101D5000EDB2802DF8D3641CE4B2082CE8D370BD3A
:101D600010B56420FEF792FBAE2000F019FB202096
:101D700000F016FB102000F013FBB02000F010FB69
:101D8000C82000F00DFB002000F00AFB102000F03E
:101D900007FB402000F004FB812000F001FBFF2046
:101DA00000F0FEFAA12000F0FBFAA62000F0F8FAFD
:101DB000A82000F0F5FA3F2000F0F2FAA42000F08D
:101DC000EFFAD32000F0ECFA002000F0E9FAD52079
:101DD00000F0E6FAF02000F0E3FAD92000F0E0FA93
:101DE000222000F0DDFADA2000F0DAFA122000F00A
:101DF000D7FADB2000F0D4FA202000F0D1FA8D20B1
:101E000000F0CEFA142000F0CBFABDE81040AF206D
:101E100000F0C6BA10B50446B031C8B200F0C0FA3E
:101E2000102040EA141000F0BBFA04F00F00BDE8E7
:101E3000104040F0010000F0B3BA00002DE9F04777
:101E4000002591468A460446012B22D0DFF8BC804B
:101E5000022B24D155E02038C7B27E2C04D90AF1D8
:101E60000100002400F0FF0A51462046FFF7D2FF90
:101E700007EB4700002608EB4007B85D00F0A2FA28
:101E8000761CF6B2062EF8D3A41D6D1CE4B2EDB29A
:101E900001E0DFF87C8019F805000028DBD1BDE8FF
:101EA000F0872038C7B2782C04D90AF10100002449
:101EB00000F0FF0A51462046FFF7ACFF5FF0000636
:101EC00006EB071118F8010000F07CFA761CF6B258
:101ED000082EF5D30AF10100C1B22046FFF79AFFA0
:101EE0005FF0000606EB071101EB0800007A00F036
:101EF00069FA761CF6B2082EF4D308346D1CE4B2ED
:101F0000EDB219F805000028CBD1C8E7C4330008AA
:101F10009C3100087047000070B50D460F4914460B
:101F200009688863002210210D48FEF7B6FB284699
:101F3000FEF78CF90B4A0C4BFEF716F9FEF797F9F2
:101F40000A490968C86300224FF480610848FEF717
:101F5000A4FB2046BDE87040FEF798BAF8000020C8
:101F600000080140EC51B81E85EBF13FB0000020A5
:101F7000000C0140044A12689063044A1268D0635E
:101F80000846FEF783BA0000F8000020B0000020E9
:101F90007047FEF721BD30B58FB028216846FEF7A7
:101FA000D8F814210AA8FEF7D4F801210804CDE9D5
:101FB00000100024029402250491CDE907504FF44B
:101FC000E01009906846FEF78BFE08B172B6FEE796
:101FD0000F20CDE90A054FF48060CDE90C400221C5
:101FE0000AA80E94FEF790FD002801D072B6FEE715
:101FF0000FB030BD704700000148FFF761B9000025
:1020000068000020F0B50268164B174C174D4FF0D2
:102010008047984205D0B84203D0A04201D0A842E0
:1020200003D122F070064A683243984205D0B84284
:1020300003D0A04201D0A84203D122F44074CA6860
:1020400022434C6922F08002224302608A68C26205
:102050000A688262984201D10969016301214161E4
:10206000F0BD0000002C01400004004000080040CA
:1020700010B501F01F030121046A99408C430462EA
:10208000016A9A401143016210BD000030B5026A36
:1020900022F001020262026A4368846924F0730537
:1020A0000C682C4322F002058A682A430A4DA84294
:1020B0000BD122F00805CA6823F440732A434D6906
:1020C00022F004021D438B692B43436084614968FD
:1020D0004163026230BD0000002C014030B5026A4D
:1020E00022F010020262026A436884690D6824F4D7
:1020F000E64444EA05248D6822F0200242EA0512F3
:102100000B4DA8420ED1CD6822F0800242EA0512A2
:102110004D6923F4406343EA85038D6922F0400250
:1021200043EA85034360846149688163026230BD8C
:10213000002C014030B5026A22F480720262036A08
:102140004268C46923F4007324F073050C682C43BF
:102150008D6843EA05230C4DA8420ED1CD6823F4C7
:10216000006343EA05234D6922F4405242EA051216
:102170008D6923F4806342EA05124260C4614968B4
:10218000C163036230BD0000002C014030B5026A1B
:1021900022F480520262046A4268C3690D6823F423
:1021A000E64343EA05238D6824F4005444EA0534E9
:1021B000064DA84204D14D6922F4804242EA8512BC
:1021C0004260C36149680164046230BD002C014073
:1021D00070B5046A24F0010404628469056A0F4E34
:1021E000B04208D0B0F1804F05D00D4EB04202D0C1
:1021F0000C4EB04203D124F00304144301E044F038
:1022000001041A0724F0F00444EA126225F00A03DC
:1022100001F00A0119438261016270BD002C014086
:10222000000400400008004030B5046A24F01004A7
:1022300004628469056A24F4407444EA022222F4A8
:1022400070444FF6FF7202EA03322243A02425F0C5
:10225000A00304EA011119438261016230BD00004C
:102260002DE9F0411E4C4FF4805529462046FEF7DB
:102270000FFA012831D1460331462046FEF708FA0D
:1022800001282AD1870339462046FEF701FA0128A2
:1022900023D14FF4004841462046FEF7F9F90128C2
:1022A0001BD132210020FFF765FE29462046FEF7AC
:1022B000EFF9012811D131462046FEF7E9F901284E
:1022C0000BD139462046FEF7E3F9012805D14146F6
:1022D0002046FEF7DDF9012800D00020BDE8F0819E
:1022E000000C014070B5044600680169E26821F401
:1022F0004051114301612169A068084361690843A5
:102300002168CA6841F20C639A430243CA6020689C
:102310004169A26921F44071114341611E4920685D
:10232000884202D1FEF796FC01E0FEF783FC00EB49
:10233000C00101EB0012606864218000B2FBF0F381
:10234000B3FBF1F36FF018067343B2FBF0F5B2FB89
:10235000F0F605EB8305322303EB0515B5FBF1F52C
:10236000B6FBF1F605F0F00505EB0615B2FBF0F64D
:10237000B2FBF0F0B0FBF1F06FF01802504306EB47
:10238000800003EB0010B0FBF1F0216800F00F00BB
:102390002844886070BD000000380140FEE700005E
:1023A00001B584B00121642204A88DE807000B4622
:1023B000002278210248FEF73FFA05B000BD000078
:1023C0001400002001B584B00121642204A88DE826
:1023D00007000B46402278210248FEF72DFA05B08F
:1023E00000BD0000140000200FB4084B10B504A974
:1023F00002AA039800F02CF8044602A9002000F07D
:10240000D1F8204610BC5DF814FB0000A52500089B
:102410000907090E002804DB00F1E02080F8001411
:10242000704700F00F0000F1E02080F8141D7047A5
:1024300002E008C8121F08C1002AFAD1704770478D
:10244000002001E001C1121F002AFBD170470000EB
:102450002DE9FF4F89B09B460446002506E025285C
:102460000BD05A460B999047641C6D1C20780028AD
:10247000F5D10DB02846BDE8F08F0027B8460122FF
:10248000474900E0074314F8013F203B02FA03F0FC
:102490000842F7D120782E2819D114F8010F47F0FF
:1024A00004072A280ED06FF02F022078A0F1300107
:1024B00009290CD808EB880102EB410100EB010867
:1024C000641CF2E70A98641C50F8048B0A90207888
:1024D0000028CED0642808D0692806D075281ED0E0
:1024E0005A460B9990476D1C58E00A994FF00A091B
:1024F00001C90A91002802DA40422D2102E0390583
:1025000004D52B218DF82010012103E0F90704D018
:102510002021F7E78A4608AE0DE00021FAE70A9984
:102520004FF00A0901C90A91F7E74946FDF7B8FEDD
:10253000303106F8011D0028F7D1ADEB060000F19F
:102540002009780701D44FF00108C84502DDA8EB47
:10255000090000E000208046002706E008A85A464F
:10256000C05D0B9990476D1C7F1C5745F6DB04E05E
:1025700030205A460B9990476D1CB8F10001A8F124
:102580000108F5DC05E016F8010B5A460B99904757
:102590006D1CB9F10001A9F10109F4DC641C65E7C7
:1025A000092801000A68531C0B6010707047000076
:1025B0002DE9F047574C4FF4805529462046FEF749
:1025C00067F867144FF480484FF4004980B93946E2
:1025D0002046FEF75DF801280AD141462046FEF765
:1025E00057F8012804D149462046FEF751F838B182
:1025F00029462046FEF74CF84FF4AF7638B116E086
:10260000BDE8F04702214FF4D270FDF711BF394603
:102610002046FEF73DF850B941462046FEF738F80F
:10262000012804D149462046FEF732F8D8B12946A0
:102630002046FEF72DF880B939462046FEF728F8E7
:1026400058B941462046FEF723F8012805D14946EE
:102650002046FEF71DF8012805D029462046FEF742
:1026600017F840B117E03146BDE8F047052240F2C7
:10267000A320FFF751BC39462046FEF709F8012890
:1026800009D141462046FEF703F820B949462046C5
:10269000FDF7FEFFA0B329462046FDF7F9FF01280C
:1026A0000FD139462046FDF7F3FF012809D14146F5
:1026B0002046FDF7EDFF20B949462046FDF7E8FF2B
:1026C000F0B129462046FDF7E3FF002820D1394626
:1026D0002046FDF7DDFF00281AD141462046FDF7D0
:1026E000D7FF002814D149462046FDF7D1FF002826
:1026F0000ED1BDE8F04728214FF4A570FDF766BE66
:102700003046BDE8F047052240F29E21FFF766B94A
:10271000BDE8F087000C0140034801210170002151
:102720004170022181707047100000202DE9F041B6
:102730001E4C4FF4805529462046FDF7A9FF01287D
:102740002FD1460331462046FDF7A2FF012828D1AC
:10275000870339462046FDF79BFF012821D14FF41E
:10276000004841462046FDF793FFD0B932210020B2
:10277000FFF700FC29462046FDF78AFF012810D10B
:1027800031462046FDF784FF01280AD1394620460C
:10279000FDF77EFF012804D141462046FDF778FF72
:1027A00010B10020BDE8F0810120FBE7000C0140E2
:1027B00070B514460E460546012210210E48FDF75D
:1027C0006CFF00224FF480610C48FDF766FF0C4857
:1027D000006885633046FDF739FD0A4A0A4BFDF76C
:1027E000C3FCFDF744FD09490968C8632046BDE8FC
:1027F0007040FDF74BBE000000080140000C014096
:10280000F8000020EC51B81E85EBF13FB00000202D
:102810002DE9F047144C4FF4E175A6144FF400581D
:102820004FF48049F70004E0022228462946FFF7CA
:10283000BFFF31462046FDF72BFF0028F4D141466B
:102840002046FDF725FF0128EED149462046FDF739
:102850001FFF0128E8D139462046FDF719FF00285F
:10286000E2D1BDE8F0870000000C01402DE9F05FE7
:102870007F4C4FF4805739462046FDF709FF651419
:102880006E004FF4004880B929462046FDF700FF4E
:1028900001280AD131462046FDF7FAFE012804D16D
:1028A00041462046FDF7F4FE48B139462046FDF783
:1028B000EFFE4FF4AF7A40F24E2B38B116E0BDE890
:1028C000F05F0A214FF4E170FDF7B2BD29462046C2
:1028D000FDF7DEFE50B931462046FDF7D9FE01284E
:1028E00004D141462046FDF7D3FE28B139462046A3
:1028F000FDF7CEFE38B118E051465846BDE8F05F0E
:102900000A22FFF709BBA94629462046FDF7C0FE6B
:1029100058B931462046FDF7BBFE012805D1414696
:102920002046FDF7B5FE012805D039462046FDF7C3
:10293000AFFE50B339E04FF496714FF4FA70FDF7E3
:1029400077FDBA464FF4E675474604E0052228466F
:10295000294600F0C7FB51462046FDF799FE0028A6
:10296000F4D149462046FDF793FE0128EED13146C9
:102970002046FDF78DFE0128E8D139462046FDF7B7
:1029800087FE0028E2D1BDE8F09F29462046FDF7EA
:102990007FFE012809D131462046FDF779FE20B996
:1029A00041462046FDF774FE38B1BA463946204606
:1029B000FDF76EFE012807D018E059465046BDE8E5
:1029C000F05F0A22FFF70AB829462046FDF760FEAD
:1029D00001280BD1B14631462046FDF759FE28B9F2
:1029E000474641462046FDF753FE20B35146204658
:1029F000FDF74EFE0028C6D129462046FDF748FEC9
:102A00000028C0D131462046FDF742FE0028BAD149
:102A100041462046FDF73CFE0028B4D1BDE8F05FFA
:102A2000FA214FF4A070FDF7D1BC052230463146A3
:102A3000FFF7BEFE03E0A84640F2C7164D465146DA
:102A40002046FDF725FE0028EFD141462046FDF740
:102A50001FFE0128E9D129462046FDF719FE01286D
:102A6000E3D139462046FDF713FE0028DDD18AE781
:102A7000000C01402DE9F05F7F4C4FF48057394640
:102A80002046FDF705FE65146E004FF4004880B93E
:102A900029462046FDF7FCFD01280AD13146204693
:102AA000FDF7F6FD012804D141462046FDF7F0FD73
:102AB00048B139462046FDF7EBFD4FF4AA7A4FF4B2
:102AC000F57B38B116E0BDE8F05F05214FF4BE702C
:102AD000FDF7AEBC29462046FDF7DAFD50B9314678
:102AE0002046FDF7D5FD012804D141462046FDF7DB
:102AF000CFFD28B139462046FDF7CAFD38B118E0B0
:102B000051465846BDE8F05F0A22FFF705BAA946CC
:102B100029462046FDF7BCFD58B931462046FDF751
:102B2000B7FD012805D141462046FDF7B1FD01283A
:102B300005D039462046FDF7ABFD50B339E04FF4E0
:102B400096714FF4FA70FDF773FCBA464FF4E675D0
:102B5000474604E005222846294600F0C3FA5146BC
:102B60002046FDF795FD0028F4D149462046FDF7A3
:102B70008FFD0128EED131462046FDF789FD012861
:102B8000E8D139462046FDF783FD0028E2D1BDE8B3
:102B9000F09F29462046FDF77BFD012809D13146EB
:102BA0002046FDF775FD20B941462046FDF770FD32
:102BB00038B1BA4639462046FDF76AFD012807D0EC
:102BC00018E059465046BDE8F05F0A22FEF706BFFE
:102BD00029462046FDF75CFD01280BD1B146314660
:102BE0002046FDF755FD28B9474641462046FDF7EA
:102BF0004FFD20B351462046FDF74AFD0028C6D1BF
:102C000029462046FDF744FD0028C0D13146204624
:102C1000FDF73EFD0028BAD141462046FDF738FDBC
:102C20000028B4D1BDE8F05FFA214FF4A070FDF7A1
:102C3000CDBB052230463146FFF7BAFD03E0A8467A
:102C400040F2C7164D4651462046FDF721FD0028AB
:102C5000EFD141462046FDF71BFD0128E9D1294669
:102C60002046FDF715FD0128E3D139462046FDF742
:102C70000FFD0028DDD18AE7000C01400EB5FDF7FD
:102C8000B3FEFFF788F9FEF7D7FEFEF7ABFFFEF7BE
:102C9000E9FFFEF751FFFEF76FFFFFF723F804216E
:102CA000CF48FEF7A9FC0821CE48FEF7A5FCFFF7A8
:102CB00057F8FFF735F80027009701970297FFF7BD
:102CC0002BFDDFF82483C94C4FF0010B40F28A2919
:102CD0004FF4006A4FF4E1754FF4FA762278C4A1FC
:102CE0006846FFF781FB002102236A460846FFF78A
:102CF000A5F820781128F1D2DFE800F00E182D4059
:102D00006FA909B8CCFDFCFB09FAF9F88400E5E7E6
:102D100031460020FFF72EF94FF480514046FDF771
:102D2000B7FC0028F4D084F800B0D7E7FFF79EFD89
:102D300000F064F90028D1D040F226213046FDF79A
:102D400077FB32462846294600F0CCF900F0ECF932
:102D500002202070C2E7FFF789FDFFF781FA002803
:102D6000BCD031460846FDF763FB3246284629466B
:102D700000F0B8F900F0D8F90320EAE7FFF718FCF3
:102D800000F03CF910B9FFF76BFA08B1607818B1A0
:102D900000F034F970B909E0C82240F2A3214FF4E1
:102DA000AF70FEF71BFE84F801B097E7FFF758FA03
:102DB000002893D06078012890D14A4629464FF4E4
:102DC0000270FFF7A9F829464A46084600F08AF93A
:102DD00000F0AAF967700420BBE7FFF747FDFFF793
:102DE000A5FC002893D040F212213046FDF720FBCD
:102DF0004FF4967228462946FFF7DAFCFFF708FDE4
:102E00001020A6E7FFF736FEFFF72AFA00288CD03D
:102E1000FA214FF49670FDF70BFB31460020FFF7C7
:102E2000A9F8012251464046FDF737FC4FF47A716C
:102E30000020FFF79FF8002251464046FDF72DFC89
:102E400048F2D0410020FFF795F8052081E740F6D1
:102E50008C214FF4AF70FDF7B9FA4A46284629464F
:102E6000FFF7A6FCFFF7D4FC072072E7FFF7FEFC94
:102E7000FFF7F6F9002898D04FF407713046FDF7B8
:102E8000D7FA02222846294600F02CF900F04CF926
:102E900008205EE7FFF78CFB00F0B0F810B9FFF7F1
:102EA000DFF950B1607840B9962240F29E214FF48C
:102EB000AF70FEF793FD84F801B000F09FF818B9E9
:102EC000FFF7CEF900288DD0607801287FF41FAF7E
:102ED0004A4629464FF40270FFF71EF829464A4633
:102EE000084600F0FFF800F01FF905E06CE058E03C
:102EF00044E038E017E002E06770092029E7FFF7B7
:102F0000B5FCFFF713FC0028B5D04FF40271304632
:102F1000FDF78EFA324628462946FFF749FCFFF7AF
:102F200077FC0A2015E7FFF7A1FCFFF799F90028C5
:102F3000A1D031460020FFF71DF80122514640463E
:102F4000FDF7ABFB4FF47A710020FFF713F8002276
:102F500051464046FDF7A1FB46F290510020FFF795
:102F600009F80B20F5E631464FF4AF70FDF72EFA65
:102F700000F084F80028A6D00D20EAE6FFF776FCE2
:102F8000FFF76EF900289ED031460846FDF750FA4B
:102F9000324628462946FFF70BFCFFF739FC0E2086
:102FA000D7E6FFF763FCFFF7C1FB68B140F21221DF
:102FB0003046FDF73DFA324628462946FFF7F8FB32
:102FC000FFF726FC0F202070FFF750FCFFF748F9B1
:102FD000002899D031460020FEF7CCFF7EE60000A5
:102FE000F8000020B0000020000801401000002080
:102FF000706F696E743A2564000000002DE9F0419D
:103000001D4C4FF4805529462046FDF741FB80BBFF
:10301000661431462046FDF73BFB012829D1870382
:1030200039462046FDF734FB012822D14FF40048F1
:1030300041462046FDF72CFB01281AD13221002001
:10304000FEF798FF29462046FDF722FB88B9314656
:103050002046FDF71DFB01280BD139462046FDF720
:1030600017FB012805D141462046FDF711FB012839
:1030700000D00020BDE8F081000C01402DE9F047B0
:103080004FF4DC754FF448722846294600F02AF8C0
:10309000134C4FF40058A6144FF48049F70004E095
:1030A00002222846294600F01DF831462046FDF749
:1030B000EFFA0028F4D141462046FDF7E9FA01284D
:1030C000EED149462046FDF7E3FA0128E8D139461A
:1030D0002046FDF7DDFA0028E2D10120BDE8F087A7
:1030E000000C014070B516460C4605460022102122
:1030F0000948FDF7D2FA012291020848FDF7CDFAFE
:1031000007480068856307480068C4633046BDE827
:103110007040FDF7BBB9000000080140000C014001
:10312000F8000020B00000202DE9F047144C4FF4C7
:10313000E175A6144FF400584FF48049F70004E0FD
:10314000022228462946FFF7CDFF31462046FDF7EB
:103150009FFA0028F4D141462046FDF799FA01284C
:10316000EED149462046FDF793FA0128E8D13946C9
:103170002046FDF78DFA0028E2D1BDE8F087000077
:10318000000C0140000000000000000001020304E8
:103190000607080900000000010203040000000007
:1031A00000000000002F00000000070007000014CE
:1031B0007F147F1400242A7F2A12006264081323DC
:1031C00000364955225000000503000000001C2273
:1031D0004100000041221C000014083E08140008B1
:1031E000083E0808000000A0600000080808080861
:1031F000000060600000002010080402003E5149F9
:10320000453E0000427F4000004261514946002196
:1032100041454B31001814127F10002745454539B0
:10322000003C4A494930000171090503003649490B
:10323000493600064949291E0000363600000000C4
:10324000563600000008142241000014141414140F
:1032500000004122140800020151090600324959B8
:10326000513E007C1211127C007F49494936003ED4
:1032700041414122007F4141221C007F494949418F
:10328000007F09090901003E4149497A007F080889
:10329000087F0000417F4100002040413F01007F46
:1032A00008142241007F40404040007F020C027F12
:1032B000007F0408107F003E4141413E007F090924
:1032C0000906003E4151215E007F0919294600464A
:1032D000494949310001017F0101003F4040403F21
:1032E000001F2040201F003F4038403F006314086B
:1032F0001463000708700807006151494543000046
:103300007F41410000552A552A55000041417F0068
:10331000000402010204004040404040000001025D
:103320000400002054545478007F48444438003846
:103330004444442000384444487F003854545418CE
:1033400000087E0901020018A4A4A47C007F0804E0
:1033500004780000447D4000004080847D00007FB0
:10336000102844000000417F4000007C04180478CD
:10337000007C0804047800384444443800FC2424C9
:1033800024180018242418FC007C080404080048B1
:103390005454542000043F444020003C4040207CD2
:1033A000001C2040201C003C4030403C00442810C1
:1033B0002844001CA0A0A07C004464544C44141475
:1033C00014141414000000000000000000000000AD
:1033D00000000000000000F80000000000000033C2
:1033E0003000000000100C06100C06000000000069
:1033F0000000000040C07840C0784000043F040452
:103400003F040400007088FC08300000001820FF12
:10341000211E0000F008F000E018000000211C034D
:103420001E211E0000F00888700000001E212324C9
:103430001927211010160E000000000000000000E7
:1034400000000000000000E0180402000000000777
:103450001820400000020418E0000000004020187E
:1034600007000000404080F0804040000202010F51
:1034700001020200000000F0000000000101011F35
:1034800001010100000000000000000080B0700099
:103490000000000000000000000000000001010129
:1034A00001010101000000000000000000303000B8
:1034B0000000000000000000806018040060180692
:1034C0000100000000E010080810E000000F1020CC
:1034D00020100F00001010F8000000000020203F16
:1034E00020200000007008080888700000302824A0
:1034F0002221300000300888884830000018202041
:1035000020110E000000C02010F800000007042465
:10351000243F240000F808888808080000192120AA
:1035200020110E0000E0108888180000000F112004
:1035300020110E0000380808C83808000000003FBD
:10354000000000000070880808887000001C22211C
:1035500021221C0000E010080810E00000003122C9
:1035600022110F00000000C0C00000000000003069
:1035700030000000000000800000000000008060BB
:10358000000000000000804020100800000102043C
:103590000810200040404040404040000404040423
:1035A00004040400000810204080000000201008DF
:1035B00004020100007048080808F0000000003014
:1035C00036010000C030C828E810E00007182724A2
:1035D00023140B000000C038E0000000203C230250
:1035E0000227382008F8888888700000203F2020B3
:1035F00020110E00C03008080808380007182020E5
:103600002010080008F808080810E000203F2020DB
:1036100020100F0008F88888E8081000203F2020BC
:103620002320180008F88888E8081000203F2000B0
:1036300003000000C03008080838000007182020E8
:10364000221E020008F808000008F808203F2101A7
:1036500001213F20000808F8080800000020203F52
:103660002020000000000808F8080800C0808080C2
:103670007F00000008F888C028180800203F2001BB
:103680002638200008F8080000000000203F202015
:103690002020300008F8F800F8F80800203F003F2C
:1036A000003F200008F830C00008F808203F200044
:1036B00007183F00E01008080810E0000F10202055
:1036C00020100F0008F808080808F000203F21012A
:1036D00001010000E01008080810E0000F18242481
:1036E00038504F0008F8888888887000203F2000F4
:1036F000030C3020007088080808380000382021AA
:1037000021221C00180808F8080818000000203FB3
:103710002000000008F808000008F808001F20201A
:1037200020201F000878880000C8380800000738EB
:103730000E010000F80800F80008F800033C07003C
:10374000073C0300081868808068180820302C03A4
:10375000032C30200838C800C83808000000203F7B
:103760002000000010080808C8380800203826216A
:1037700020201800000000FE020202000000007F6E
:1037800040404000000C30C000000000000000017C
:103790000638C00000020202FE0000000040404067
:1037A0007F0000000000040202020400000000008C
:1037B0000000000000000000000000008080808009
:1037C00080808080000202040000000000000000F1
:1037D000000000000000808080800000001924228A
:1037E00022223F2008F8008080000000003F1120C6
:1037F00020110E000000008080800000000E1120CB
:1038000020201100000000808088F800000E1120A8
:1038100020103F200000808080800000001F2222B6
:1038200022221300008080F0888888180020203F22
:10383000202000000000808080808000006B949435
:103840009493600008F8008080800000203F2100F1
:1038500000203F2000809898000000000020203FBA
:1038600020200000000000809898000000C08080A8
:10387000807F000008F8000080808000203F240244
:103880002D302000000808F8000000000020203F34
:10389000202000008080808080808000203F2000E9
:1038A0003F20003F8080008080800000203F21007A
:1038B00000203F200000808080800000001F20202A
:1038C00020201F00808000808000000080FFA12059
:1038D00020110E000000008080808000000E11206A
:1038E00020A0FF80808080008080800020203F21F9
:1038F00020000100000080808080800000332424AC
:1039000024241900008080E0808000000000001F57
:10391000202000008080000000808000001F202008
:1039200020103F20808080000080808000010E30C9
:103930000806010080800080008080800F300C032A
:103940000C300F0000808000808080000020312E2D
:103950000E312000808080000080808080818E7009
:103960001806010000808080808080000021302CBB
:103970002221300000000000807C020200000000D4
:10398000003F404000000000FF0000000000000079
:10399000FF0000000002027C800000000040403F69
:1039A0000000000000060101020204040000000003
:1039B00000000000D43900080000002014000000BE
:1039C00030240008E83900081400002084050000B5
:1039D000402400080100000010000000000000006A
:0839E0000024F40000000000C7
:04000005080000ED02
:00000001FF
